{
  "_format": "hh-sol-artifact-1",
  "contractName": "NationwideElection",
  "sourceName": "contracts/NationwideElection.sol",
  "abi": [
    {
      "inputs": [
        {
          "internalType": "string",
          "name": "_electionName",
          "type": "string"
        },
        {
          "internalType": "uint256",
          "name": "_durationInDays",
          "type": "uint256"
        }
      ],
      "stateMutability": "nonpayable",
      "type": "constructor"
    },
    {
      "anonymous": false,
      "inputs": [
        {
          "indexed": true,
          "internalType": "uint256",
          "name": "candidateId",
          "type": "uint256"
        },
        {
          "indexed": false,
          "internalType": "uint256",
          "name": "timestamp",
          "type": "uint256"
        }
      ],
      "name": "CandidateDeactivated",
      "type": "event"
    },
    {
      "anonymous": false,
      "inputs": [
        {
          "indexed": true,
          "internalType": "uint256",
          "name": "candidateId",
          "type": "uint256"
        },
        {
          "indexed": false,
          "internalType": "string",
          "name": "name",
          "type": "string"
        },
        {
          "indexed": false,
          "internalType": "string",
          "name": "party",
          "type": "string"
        },
        {
          "indexed": false,
          "internalType": "uint256",
          "name": "timestamp",
          "type": "uint256"
        }
      ],
      "name": "CandidateNominated",
      "type": "event"
    },
    {
      "anonymous": false,
      "inputs": [
        {
          "indexed": false,
          "internalType": "string",
          "name": "name",
          "type": "string"
        },
        {
          "indexed": false,
          "internalType": "uint256",
          "name": "startTime",
          "type": "uint256"
        },
        {
          "indexed": false,
          "internalType": "uint256",
          "name": "endTime",
          "type": "uint256"
        }
      ],
      "name": "ElectionCreated",
      "type": "event"
    },
    {
      "anonymous": false,
      "inputs": [
        {
          "indexed": false,
          "internalType": "uint256",
          "name": "timestamp",
          "type": "uint256"
        }
      ],
      "name": "EmergencyStop",
      "type": "event"
    },
    {
      "anonymous": false,
      "inputs": [
        {
          "indexed": false,
          "internalType": "enum NationwideElection.ElectionPhase",
          "name": "newPhase",
          "type": "uint8"
        },
        {
          "indexed": false,
          "internalType": "uint256",
          "name": "timestamp",
          "type": "uint256"
        }
      ],
      "name": "PhaseChanged",
      "type": "event"
    },
    {
      "anonymous": false,
      "inputs": [
        {
          "indexed": true,
          "internalType": "uint256",
          "name": "winningCandidateId",
          "type": "uint256"
        },
        {
          "indexed": false,
          "internalType": "uint256",
          "name": "totalVotes",
          "type": "uint256"
        },
        {
          "indexed": false,
          "internalType": "uint256",
          "name": "timestamp",
          "type": "uint256"
        }
      ],
      "name": "ResultsDeclared",
      "type": "event"
    },
    {
      "anonymous": false,
      "inputs": [
        {
          "indexed": true,
          "internalType": "address",
          "name": "voter",
          "type": "address"
        },
        {
          "indexed": true,
          "internalType": "uint256",
          "name": "candidateId",
          "type": "uint256"
        },
        {
          "indexed": false,
          "internalType": "uint256",
          "name": "timestamp",
          "type": "uint256"
        }
      ],
      "name": "VoteCast",
      "type": "event"
    },
    {
      "anonymous": false,
      "inputs": [
        {
          "indexed": true,
          "internalType": "address",
          "name": "voter",
          "type": "address"
        },
        {
          "indexed": false,
          "internalType": "string",
          "name": "nationalId",
          "type": "string"
        },
        {
          "indexed": false,
          "internalType": "uint256",
          "name": "timestamp",
          "type": "uint256"
        }
      ],
      "name": "VoterRegistered",
      "type": "event"
    },
    {
      "anonymous": false,
      "inputs": [
        {
          "indexed": true,
          "internalType": "address",
          "name": "voter",
          "type": "address"
        },
        {
          "indexed": false,
          "internalType": "bool",
          "name": "hasVoted",
          "type": "bool"
        }
      ],
      "name": "VoterStatusUpdated",
      "type": "event"
    },
    {
      "inputs": [
        {
          "internalType": "address[]",
          "name": "_voterAddresses",
          "type": "address[]"
        },
        {
          "internalType": "string[]",
          "name": "_nationalIds",
          "type": "string[]"
        }
      ],
      "name": "batchRegisterVoters",
      "outputs": [],
      "stateMutability": "nonpayable",
      "type": "function"
    },
    {
      "inputs": [
        {
          "internalType": "uint256",
          "name": "_candidateId",
          "type": "uint256"
        }
      ],
      "name": "castVote",
      "outputs": [],
      "stateMutability": "nonpayable",
      "type": "function"
    },
    {
      "inputs": [],
      "name": "currentPhase",
      "outputs": [
        {
          "internalType": "enum NationwideElection.ElectionPhase",
          "name": "",
          "type": "uint8"
        }
      ],
      "stateMutability": "view",
      "type": "function"
    },
    {
      "inputs": [
        {
          "internalType": "uint256",
          "name": "_candidateId",
          "type": "uint256"
        }
      ],
      "name": "deactivateCandidate",
      "outputs": [],
      "stateMutability": "nonpayable",
      "type": "function"
    },
    {
      "inputs": [],
      "name": "electionCommissioner",
      "outputs": [
        {
          "internalType": "address",
          "name": "",
          "type": "address"
        }
      ],
      "stateMutability": "view",
      "type": "function"
    },
    {
      "inputs": [],
      "name": "electionEndTime",
      "outputs": [
        {
          "internalType": "uint256",
          "name": "",
          "type": "uint256"
        }
      ],
      "stateMutability": "view",
      "type": "function"
    },
    {
      "inputs": [],
      "name": "electionName",
      "outputs": [
        {
          "internalType": "string",
          "name": "",
          "type": "string"
        }
      ],
      "stateMutability": "view",
      "type": "function"
    },
    {
      "inputs": [],
      "name": "electionStartTime",
      "outputs": [
        {
          "internalType": "uint256",
          "name": "",
          "type": "uint256"
        }
      ],
      "stateMutability": "view",
      "type": "function"
    },
    {
      "inputs": [],
      "name": "emergencyStop",
      "outputs": [],
      "stateMutability": "nonpayable",
      "type": "function"
    },
    {
      "inputs": [],
      "name": "getAllCandidates",
      "outputs": [
        {
          "components": [
            {
              "internalType": "uint256",
              "name": "id",
              "type": "uint256"
            },
            {
              "internalType": "string",
              "name": "name",
              "type": "string"
            },
            {
              "internalType": "string",
              "name": "party",
              "type": "string"
            },
            {
              "internalType": "string",
              "name": "manifesto",
              "type": "string"
            },
            {
              "internalType": "uint256",
              "name": "voteCount",
              "type": "uint256"
            },
            {
              "internalType": "bool",
              "name": "isActive",
              "type": "bool"
            },
            {
              "internalType": "uint256",
              "name": "nominationTime",
              "type": "uint256"
            }
          ],
          "internalType": "struct ICandidateManagement.Candidate[]",
          "name": "",
          "type": "tuple[]"
        }
      ],
      "stateMutability": "view",
      "type": "function"
    },
    {
      "inputs": [
        {
          "internalType": "uint256",
          "name": "_candidateId",
          "type": "uint256"
        }
      ],
      "name": "getCandidate",
      "outputs": [
        {
          "components": [
            {
              "internalType": "uint256",
              "name": "id",
              "type": "uint256"
            },
            {
              "internalType": "string",
              "name": "name",
              "type": "string"
            },
            {
              "internalType": "string",
              "name": "party",
              "type": "string"
            },
            {
              "internalType": "string",
              "name": "manifesto",
              "type": "string"
            },
            {
              "internalType": "uint256",
              "name": "voteCount",
              "type": "uint256"
            },
            {
              "internalType": "bool",
              "name": "isActive",
              "type": "bool"
            },
            {
              "internalType": "uint256",
              "name": "nominationTime",
              "type": "uint256"
            }
          ],
          "internalType": "struct ICandidateManagement.Candidate",
          "name": "",
          "type": "tuple"
        }
      ],
      "stateMutability": "view",
      "type": "function"
    },
    {
      "inputs": [
        {
          "internalType": "uint256",
          "name": "_candidateId",
          "type": "uint256"
        }
      ],
      "name": "getCandidateVoteCount",
      "outputs": [
        {
          "internalType": "uint256",
          "name": "",
          "type": "uint256"
        }
      ],
      "stateMutability": "view",
      "type": "function"
    },
    {
      "inputs": [],
      "name": "getElectionStatus",
      "outputs": [
        {
          "internalType": "string",
          "name": "name",
          "type": "string"
        },
        {
          "internalType": "enum NationwideElection.ElectionPhase",
          "name": "phase",
          "type": "uint8"
        },
        {
          "internalType": "uint256",
          "name": "startTime",
          "type": "uint256"
        },
        {
          "internalType": "uint256",
          "name": "endTime",
          "type": "uint256"
        },
        {
          "internalType": "uint256",
          "name": "totalVoters",
          "type": "uint256"
        },
        {
          "internalType": "uint256",
          "name": "totalCandidates",
          "type": "uint256"
        },
        {
          "internalType": "uint256",
          "name": "votesCast",
          "type": "uint256"
        },
        {
          "internalType": "bool",
          "name": "resultsAvailable",
          "type": "bool"
        }
      ],
      "stateMutability": "view",
      "type": "function"
    },
    {
      "inputs": [],
      "name": "getResults",
      "outputs": [
        {
          "internalType": "uint256",
          "name": "winner",
          "type": "uint256"
        },
        {
          "internalType": "string",
          "name": "winnerName",
          "type": "string"
        },
        {
          "internalType": "string",
          "name": "winnerParty",
          "type": "string"
        },
        {
          "internalType": "uint256",
          "name": "winnerVotes",
          "type": "uint256"
        },
        {
          "internalType": "uint256",
          "name": "totalVotes",
          "type": "uint256"
        }
      ],
      "stateMutability": "view",
      "type": "function"
    },
    {
      "inputs": [],
      "name": "getTotalCandidates",
      "outputs": [
        {
          "internalType": "uint256",
          "name": "",
          "type": "uint256"
        }
      ],
      "stateMutability": "view",
      "type": "function"
    },
    {
      "inputs": [],
      "name": "getTotalVoters",
      "outputs": [
        {
          "internalType": "uint256",
          "name": "",
          "type": "uint256"
        }
      ],
      "stateMutability": "view",
      "type": "function"
    },
    {
      "inputs": [
        {
          "internalType": "address",
          "name": "_voterAddress",
          "type": "address"
        }
      ],
      "name": "getVoter",
      "outputs": [
        {
          "components": [
            {
              "internalType": "bool",
              "name": "isRegistered",
              "type": "bool"
            },
            {
              "internalType": "bool",
              "name": "hasVoted",
              "type": "bool"
            },
            {
              "internalType": "uint256",
              "name": "votedCandidateId",
              "type": "uint256"
            },
            {
              "internalType": "uint256",
              "name": "registrationTime",
              "type": "uint256"
            },
            {
              "internalType": "string",
              "name": "nationalId",
              "type": "string"
            }
          ],
          "internalType": "struct IVoterManagement.Voter",
          "name": "",
          "type": "tuple"
        }
      ],
      "stateMutability": "view",
      "type": "function"
    },
    {
      "inputs": [
        {
          "internalType": "address",
          "name": "_voterAddress",
          "type": "address"
        }
      ],
      "name": "hasVoterVoted",
      "outputs": [
        {
          "internalType": "bool",
          "name": "",
          "type": "bool"
        }
      ],
      "stateMutability": "view",
      "type": "function"
    },
    {
      "inputs": [
        {
          "internalType": "address",
          "name": "_voterAddress",
          "type": "address"
        }
      ],
      "name": "isRegisteredVoter",
      "outputs": [
        {
          "internalType": "bool",
          "name": "",
          "type": "bool"
        }
      ],
      "stateMutability": "view",
      "type": "function"
    },
    {
      "inputs": [],
      "name": "moveToNextPhase",
      "outputs": [],
      "stateMutability": "nonpayable",
      "type": "function"
    },
    {
      "inputs": [
        {
          "internalType": "string",
          "name": "_name",
          "type": "string"
        },
        {
          "internalType": "string",
          "name": "_party",
          "type": "string"
        },
        {
          "internalType": "string",
          "name": "_manifesto",
          "type": "string"
        }
      ],
      "name": "nominateCandidate",
      "outputs": [],
      "stateMutability": "nonpayable",
      "type": "function"
    },
    {
      "inputs": [
        {
          "internalType": "address",
          "name": "_voterAddress",
          "type": "address"
        },
        {
          "internalType": "string",
          "name": "_nationalId",
          "type": "string"
        }
      ],
      "name": "registerVoter",
      "outputs": [],
      "stateMutability": "nonpayable",
      "type": "function"
    },
    {
      "inputs": [],
      "name": "resultsPublished",
      "outputs": [
        {
          "internalType": "bool",
          "name": "",
          "type": "bool"
        }
      ],
      "stateMutability": "view",
      "type": "function"
    },
    {
      "inputs": [],
      "name": "totalVotesCast",
      "outputs": [
        {
          "internalType": "uint256",
          "name": "",
          "type": "uint256"
        }
      ],
      "stateMutability": "view",
      "type": "function"
    },
    {
      "inputs": [
        {
          "internalType": "address",
          "name": "_newCommissioner",
          "type": "address"
        }
      ],
      "name": "transferCommissioner",
      "outputs": [],
      "stateMutability": "nonpayable",
      "type": "function"
    },
    {
      "inputs": [],
      "name": "winningCandidateId",
      "outputs": [
        {
          "internalType": "uint256",
          "name": "",
          "type": "uint256"
        }
      ],
      "stateMutability": "view",
      "type": "function"
    }
  ],
  "bytecode": "0x60806040523480156200001157600080fd5b5060405162002ecb38038062002ecb833981016040819052620000349162000171565b60008111620000895760405162461bcd60e51b815260206004820152601960248201527f4475726174696f6e206d75737420626520706f73697469766500000000000000604482015260640160405180910390fd5b600080546001600160a01b031916331790556001620000a98382620002c2565b506004805461ff001916905542600255620000c88162015180620003a4565b620000d49042620003c4565b60038190556004805460ff191690556000600a819055600b556002546040517f3192025d62576bbf32bcba53281e3aeec990aa639a799f5e1abaa5fc0b654f999262000125928692909190620003da565b60405180910390a150506200041e565b634e487b7160e01b600052604160045260246000fd5b60005b83811015620001685781810151838201526020016200014e565b50506000910152565b600080604083850312156200018557600080fd5b82516001600160401b03808211156200019d57600080fd5b818501915085601f830112620001b257600080fd5b815181811115620001c757620001c762000135565b604051601f8201601f19908116603f01168101908382118183101715620001f257620001f262000135565b816040528281528860208487010111156200020c57600080fd5b6200021f8360208301602088016200014b565b602097909701519698969750505050505050565b600181811c908216806200024857607f821691505b6020821081036200026957634e487b7160e01b600052602260045260246000fd5b50919050565b601f821115620002bd57600081815260208120601f850160051c81016020861015620002985750805b601f850160051c820191505b81811015620002b957828155600101620002a4565b5050505b505050565b81516001600160401b03811115620002de57620002de62000135565b620002f681620002ef845462000233565b846200026f565b602080601f8311600181146200032e5760008415620003155750858301515b600019600386901b1c1916600185901b178555620002b9565b600085815260208120601f198616915b828110156200035f578886015182559484019460019091019084016200033e565b50858210156200037e5787850151600019600388901b60f8161c191681555b5050505050600190811b01905550565b634e487b7160e01b600052601160045260246000fd5b8082028115828204841417620003be57620003be6200038e565b92915050565b80820180821115620003be57620003be6200038e565b6060815260008451806060840152620003fb8160808501602089016200014b565b60208301949094525060408101919091526080601f909201601f19160101919050565b612a9d806200042e6000396000f3fe608060405234801561001057600080fd5b506004361061018e5760003560e01c806385e8e7a7116100de578063d4f50f9811610097578063e749590411610071578063e74959041461036a578063ebbb4f841461037d578063f9653b4c14610390578063fd11f97a146103a357600080fd5b8063d4f50f9814610316578063da36cffe14610336578063e6fe107c1461036257600080fd5b806385e8e7a7146102b657806397341d59146102cb5780639e136e64146102de5780639f03e0d3146102e7578063b315c597146102fa578063c5980c941461030d57600080fd5b806335b8e8201161014b5780635f589599116101255780635f5895991461028057806363a599a41461029d578063793cf218146102a55780637de418d5146102ad57600080fd5b806335b8e820146102325780633eb76b9c146102525780634717f97c1461026757600080fd5b8063055ad42e146101935780630deb56ab146101bb578063122902a6146101cd5780631bdbb2ab146101e95780631eb85538146102145780632e6997fe1461021d575b600080fd5b6004546101a590610100900460ff1681565b6040516101b29190612202565b60405180910390f35b600a545b6040519081526020016101b2565b6101d56103d4565b6040516101b2989796959493929190612266565b6000546101fc906001600160a01b031681565b6040516001600160a01b0390911681526020016101b2565b6101bf600c5481565b6102256104bb565b6040516101b2919061233c565b61024561024036600461239e565b61079e565b6040516101b291906123b7565b61026561026036600461239e565b610a1f565b005b61026f610caa565b6040516101b29594939291906123d1565b60045461028d9060ff1681565b60405190151581526020016101b2565b610265610f87565b6008546101bf565b6101bf600b5481565b6102be610ff6565b6040516101b29190612411565b6102656102d936600461239e565b611084565b6101bf60035481565b6102656102f53660046124db565b611200565b6101bf61030836600461239e565b61143e565b6101bf60025481565b61032961032436600461257f565b6114e6565b6040516101b2919061259a565b61028d61034436600461257f565b6001600160a01b031660009081526005602052604090205460ff1690565b61026561168b565b61026561037836600461257f565b6118e2565b61026561038b3660046125e9565b6119c8565b61026561039e3660046126eb565b611ce8565b61028d6103b136600461257f565b6001600160a01b0316600090815260056020526040902054610100900460ff1690565b606060008060008060008060006001600460019054906101000a900460ff16600254600354600880549050600a54600b54600460009054906101000a900460ff16878054610421906127a1565b80601f016020809104026020016040519081016040528092919081815260200182805461044d906127a1565b801561049a5780601f1061046f5761010080835404028352916020019161049a565b820191906000526020600020905b81548152906001019060200180831161047d57829003601f168201915b50505050509750975097509750975097509750975097509091929394959697565b60606000600a5467ffffffffffffffff8111156104da576104da612424565b60405190808252806020026020018201604052801561054d57816020015b61053a6040518060e001604052806000815260200160608152602001606081526020016060815260200160008152602001600015158152602001600081525090565b8152602001906001900390816104f85790505b50905060015b600a54811161079857600760008281526020019081526020016000206040518060e001604052908160008201548152602001600182018054610594906127a1565b80601f01602080910402602001604051908101604052809291908181526020018280546105c0906127a1565b801561060d5780601f106105e25761010080835404028352916020019161060d565b820191906000526020600020905b8154815290600101906020018083116105f057829003601f168201915b50505050508152602001600282018054610626906127a1565b80601f0160208091040260200160405190810160405280929190818152602001828054610652906127a1565b801561069f5780601f106106745761010080835404028352916020019161069f565b820191906000526020600020905b81548152906001019060200180831161068257829003601f168201915b505050505081526020016003820180546106b8906127a1565b80601f01602080910402602001604051908101604052809291908181526020018280546106e4906127a1565b80156107315780601f1061070657610100808354040283529160200191610731565b820191906000526020600020905b81548152906001019060200180831161071457829003601f168201915b505050918352505060048201546020820152600582015460ff16151560408201526006909101546060909101528261076a6001846127eb565b8151811061077a5761077a6127fe565b6020026020010181905250808061079090612814565b915050610553565b50919050565b6107e06040518060e001604052806000815260200160608152602001606081526020016060815260200160008152602001600015158152602001600081525090565b6000821180156107f25750600a548211155b6108175760405162461bcd60e51b815260040161080e9061282d565b60405180910390fd5b600760008381526020019081526020016000206040518060e00160405290816000820154815260200160018201805461084f906127a1565b80601f016020809104026020016040519081016040528092919081815260200182805461087b906127a1565b80156108c85780601f1061089d576101008083540402835291602001916108c8565b820191906000526020600020905b8154815290600101906020018083116108ab57829003601f168201915b505050505081526020016002820180546108e1906127a1565b80601f016020809104026020016040519081016040528092919081815260200182805461090d906127a1565b801561095a5780601f1061092f5761010080835404028352916020019161095a565b820191906000526020600020905b81548152906001019060200180831161093d57829003601f168201915b50505050508152602001600382018054610973906127a1565b80601f016020809104026020016040519081016040528092919081815260200182805461099f906127a1565b80156109ec5780601f106109c1576101008083540402835291602001916109ec565b820191906000526020600020905b8154815290600101906020018083116109cf57829003601f168201915b505050918352505060048201546020820152600582015460ff161515604082015260069091015460609091015292915050565b60028060048054610100900460ff1690811115610a3e57610a3e6121ca565b14610a5b5760405162461bcd60e51b815260040161080e9061285b565b3360009081526005602052604090205460ff16610ab35760405162461bcd60e51b81526020600482015260166024820152752737ba1030903932b3b4b9ba32b932b2103b37ba32b960511b604482015260640161080e565b33600090815260056020526040902054610100900460ff1615610b085760405162461bcd60e51b815260206004820152600d60248201526c105b1c9958591e481d9bdd1959609a1b604482015260640161080e565b81600081118015610b1b5750600a548111155b610b375760405162461bcd60e51b815260040161080e9061282d565b60008181526007602052604090206005015460ff16610b985760405162461bcd60e51b815260206004820152601760248201527f43616e646964617465206973206e6f7420616374697665000000000000000000604482015260640161080e565b600354421115610bdf5760405162461bcd60e51b8152602060048201526012602482015271115b1958dd1a5bdb881a185cc8195b99195960721b604482015260640161080e565b336000908152600560209081526040808320805461ff00191661010017815560010186905585835260079091528120600401805491610c1d83612814565b9091555050600b8054906000610c3283612814565b9091555050604051428152839033907fb4cfecf70861b7b150d8337780d34fb4cbc2114b5fb1fe51a5c5fca1849f72749060200160405180910390a36040516001815233907f930092ace8157b2101bc333d8c3951d9a4cf5cb98ec4890e25b6b5ae155f080b906020015b60405180910390a2505050565b60045460009060609081908390819060ff16610d045760405162461bcd60e51b815260206004820152601960248201527814995cdd5b1d1cc81b9bdd081e595d081c1d589b1a5cda1959603a1b604482015260640161080e565b6000600c5411610d4d5760405162461bcd60e51b8152602060048201526014602482015273139bc81dda5b9b995c8819195d195c9b5a5b995960621b604482015260640161080e565b600060076000600c5481526020019081526020016000206040518060e001604052908160008201548152602001600182018054610d89906127a1565b80601f0160208091040260200160405190810160405280929190818152602001828054610db5906127a1565b8015610e025780601f10610dd757610100808354040283529160200191610e02565b820191906000526020600020905b815481529060010190602001808311610de557829003601f168201915b50505050508152602001600282018054610e1b906127a1565b80601f0160208091040260200160405190810160405280929190818152602001828054610e47906127a1565b8015610e945780601f10610e6957610100808354040283529160200191610e94565b820191906000526020600020905b815481529060010190602001808311610e7757829003601f168201915b50505050508152602001600382018054610ead906127a1565b80601f0160208091040260200160405190810160405280929190818152602001828054610ed9906127a1565b8015610f265780601f10610efb57610100808354040283529160200191610f26565b820191906000526020600020905b815481529060010190602001808311610f0957829003601f168201915b50505050508152602001600482015481526020016005820160009054906101000a900460ff161515151581526020016006820154815250509050600c54816020015182604001518360800151600b5495509550955095509550509091929394565b6000546001600160a01b03163314610fb15760405162461bcd60e51b815260040161080e90612892565b6004805461ff0019166103001790556040514281527f1e8ac57e9803840915f0284b77b570a882fb2db69108ac8eba578bb30fcaf152906020015b60405180910390a1565b60018054611003906127a1565b80601f016020809104026020016040519081016040528092919081815260200182805461102f906127a1565b801561107c5780601f106110515761010080835404028352916020019161107c565b820191906000526020600020905b81548152906001019060200180831161105f57829003601f168201915b505050505081565b6000546001600160a01b031633146110ae5760405162461bcd60e51b815260040161080e90612892565b6000811180156110c05750600a548111155b6110dc5760405162461bcd60e51b815260040161080e9061282d565b60008181526007602052604090206005015460ff1661113d5760405162461bcd60e51b815260206004820152601a60248201527f43616e64696461746520616c726561647920696e616374697665000000000000604482015260640161080e565b600260048054610100900460ff169081111561115b5761115b6121ca565b036111a85760405162461bcd60e51b815260206004820152601f60248201527f43616e6e6f74206465616374697661746520647572696e6720766f74696e6700604482015260640161080e565b60008181526007602052604090819020600501805460ff191690555181907fa47b124db8871ba27ec2a1b237df819ac706321bc227475ac73d092008a74ab1906111f59042815260200190565b60405180910390a250565b6000546001600160a01b0316331461122a5760405162461bcd60e51b815260040161080e90612892565b60018060048054610100900460ff1690811115611249576112496121ca565b146112665760405162461bcd60e51b815260040161080e9061285b565b60008451116112ae5760405162461bcd60e51b81526020600482015260146024820152734e616d652063616e6e6f7420626520656d70747960601b604482015260640161080e565b60008351116112f75760405162461bcd60e51b815260206004820152601560248201527450617274792063616e6e6f7420626520656d70747960581b604482015260640161080e565b600a805490600061130783612814565b90915550506040805160e081018252600a54808252602080830188815283850188905260608401879052600060808501819052600160a086018190524260c087015293815260079092529390208251815592519192919082019061136b9082612918565b50604082015160028201906113809082612918565b50606082015160038201906113959082612918565b506080820151600482015560a082015160058201805460ff191691151591909117905560c090910151600690910155600a54600980546001810182556000919091527f6e1540171b6c0c960b71a7020d9f60077f6af931a8bbf590da0223dacf75c7af018190556040517fbd62c4eb448af721bca3c9cb7bdbb76d32691e0dc8b5f3d3f803b820bc3953d290611430908790879042906129d8565b60405180910390a250505050565b600080821180156114515750600a548211155b61146d5760405162461bcd60e51b815260040161080e9061282d565b60045460ff168061148857506000546001600160a01b031633145b6114d05760405162461bcd60e51b815260206004820152601960248201527814995cdd5b1d1cc81b9bdd081e595d081c1d589b1a5cda1959603a1b604482015260640161080e565b5060009081526007602052604090206004015490565b61151c6040518060a001604052806000151581526020016000151581526020016000815260200160008152602001606081525090565b6000546001600160a01b031633148061153d5750336001600160a01b038316145b6115955760405162461bcd60e51b8152602060048201526024808201527f4e6f7420617574686f72697a656420746f207669657720766f7465722064657460448201526361696c7360e01b606482015260840161080e565b6001600160a01b038216600090815260056020908152604091829020825160a081018452815460ff808216151583526101009091041615159281019290925260018101549282019290925260028201546060820152600382018054919291608084019190611602906127a1565b80601f016020809104026020016040519081016040528092919081815260200182805461162e906127a1565b801561167b5780601f106116505761010080835404028352916020019161167b565b820191906000526020600020905b81548152906001019060200180831161165e57829003601f168201915b5050505050815250509050919050565b6000546001600160a01b031633146116b55760405162461bcd60e51b815260040161080e90612892565b6004808054610100900460ff16908111156116d2576116d26121ca565b0361171f5760405162461bcd60e51b815260206004820152601a60248201527f456c656374696f6e20616c726561647920636f6d706c65746564000000000000604482015260640161080e565b600060048054610100900460ff169081111561173d5761173d6121ca565b036117a4576008546117885760405162461bcd60e51b8152602060048201526014602482015273139bc81d9bdd195c9cc81c9959da5cdd195c995960621b604482015260640161080e565b600480546001919061ff001916610100835b02179055506118a2565b600160048054610100900460ff16908111156117c2576117c26121ca565b0361182f576000600a54116118195760405162461bcd60e51b815260206004820152601760248201527f4e6f2063616e64696461746573206e6f6d696e61746564000000000000000000604482015260640161080e565b600480546002919061ff0019166101008361179a565b600260048054610100900460ff169081111561184d5761184d6121ca565b0361186857600480546003919061ff0019166101008361179a565b600360048054610100900460ff1690811115611886576118866121ca565b036118a2576004805461ff0019166104001790556118a2612070565b7fe65264342b0c60a079c9c89c73855ac517088348498810186d8c8ae6c7848ba1600460019054906101000a900460ff1642604051610fec929190612a0e565b6000546001600160a01b0316331461190c5760405162461bcd60e51b815260040161080e90612892565b6001600160a01b0381166119545760405162461bcd60e51b815260206004820152600f60248201526e496e76616c6964206164647265737360881b604482015260640161080e565b6000546001600160a01b03908116908216036119a65760405162461bcd60e51b815260206004820152601160248201527029b0b6b29031b7b6b6b4b9b9b4b7b732b960791b604482015260640161080e565b600080546001600160a01b0319166001600160a01b0392909216919091179055565b6000546001600160a01b031633146119f25760405162461bcd60e51b815260040161080e90612892565b60008060048054610100900460ff1690811115611a1157611a116121ca565b14611a2e5760405162461bcd60e51b815260040161080e9061285b565b6001600160a01b038316611a7c5760405162461bcd60e51b8152602060048201526015602482015274496e76616c696420766f746572206164647265737360581b604482015260640161080e565b6001600160a01b03831660009081526005602052604090205460ff1615611ae55760405162461bcd60e51b815260206004820152601860248201527f566f74657220616c726561647920726567697374657265640000000000000000604482015260640161080e565b600682604051611af59190612a29565b9081526040519081900360200190205460ff1615611b555760405162461bcd60e51b815260206004820152601860248201527f4e6174696f6e616c20494420616c726561647920757365640000000000000000604482015260640161080e565b6000825111611ba65760405162461bcd60e51b815260206004820152601b60248201527f4e6174696f6e616c2049442063616e6e6f7420626520656d7074790000000000604482015260640161080e565b6040805160a0810182526001808252600060208084018281528486018381524260608701908152608087018a81526001600160a01b038c16865260059094529690932085518154925161ffff1990931690151561ff001916176101009215159290920291909117815591519282019290925592516002840155519091906003820190611c329082612918565b509050506001600683604051611c489190612a29565b908152604051908190036020018120805492151560ff1990931692909217909155600880546001810182556000919091527ff3f7a9fe364faab93b216da50a3214154f22a0a2b415b23a84c8169e8b636ee30180546001600160a01b0386166001600160a01b03199091168117909155907f1e7da607cf8e31513f12bb72316d891a5541379aaebc20ba1822516065b8e1dd90610c9d9085904290612a45565b6000546001600160a01b03163314611d125760405162461bcd60e51b815260040161080e90612892565b60008060048054610100900460ff1690811115611d3157611d316121ca565b14611d4e5760405162461bcd60e51b815260040161080e9061285b565b8151835114611d985760405162461bcd60e51b8152602060048201526016602482015275082e4e4c2f2e640d8cadccee8d040dad2e6dac2e8c6d60531b604482015260640161080e565b6000835111611dd85760405162461bcd60e51b815260206004820152600c60248201526b456d7074792061727261797360a01b604482015260640161080e565b60005b835181101561206a5760056000858381518110611dfa57611dfa6127fe565b6020908102919091018101516001600160a01b031682528101919091526040016000205460ff16158015611e6757506006838281518110611e3d57611e3d6127fe565b6020026020010151604051611e529190612a29565b9081526040519081900360200190205460ff16155b15612058576040518060a0016040528060011515815260200160001515815260200160008152602001428152602001848381518110611ea857611ea86127fe565b602002602001015181525060056000868481518110611ec957611ec96127fe565b6020908102919091018101516001600160a01b03168252818101929092526040908101600020835181549385015161ffff1990941690151561ff001916176101009315159390930292909217825582015160018201556060820151600282015560808201516003820190611f3d9082612918565b5090505060016006848381518110611f5757611f576127fe565b6020026020010151604051611f6c9190612a29565b908152602001604051809103902060006101000a81548160ff0219169083151502179055506008848281518110611fa557611fa56127fe565b60209081029190910181015182546001810184556000938452919092200180546001600160a01b0319166001600160a01b039092169190911790558351849082908110611ff457611ff46127fe565b60200260200101516001600160a01b03167f1e7da607cf8e31513f12bb72316d891a5541379aaebc20ba1822516065b8e1dd848381518110612038576120386127fe565b60200260200101514260405161204f929190612a45565b60405180910390a25b8061206281612814565b915050611ddb565b50505050565b60045460ff16156120c35760405162461bcd60e51b815260206004820152601960248201527f526573756c747320616c7265616479207075626c697368656400000000000000604482015260640161080e565b6004808054610100900460ff16908111156120e0576120e06121ca565b146121245760405162461bcd60e51b81526020600482015260146024820152734e6f7420696e20726573756c747320706861736560601b604482015260640161080e565b60008060015b600a548111612176576000818152600760205260409020600401548310156121645760008181526007602052604090206004015492509050805b8061216e81612814565b91505061212a565b50600c8190556004805460ff19166001179055600b546040805191825242602083015282917f15ef4256982f9754a79018880b1b68d9372a5944557dab5f7ed702152ced2b32910160405180910390a25050565b634e487b7160e01b600052602160045260246000fd5b600581106121fe57634e487b7160e01b600052602160045260246000fd5b9052565b6020810161221082846121e0565b92915050565b60005b83811015612231578181015183820152602001612219565b50506000910152565b60008151808452612252816020860160208601612216565b601f01601f19169290920160200192915050565b600061010080835261227a8184018c61223a565b91505061228a602083018a6121e0565b8760408301528660608301528560808301528460a08301528360c083015282151560e08301529998505050505050505050565b805182526000602082015160e060208501526122dc60e085018261223a565b9050604083015184820360408601526122f5828261223a565b9150506060830151848203606086015261230f828261223a565b9150506080830151608085015260a0830151151560a085015260c083015160c08501528091505092915050565b6000602080830181845280855180835260408601915060408160051b870101925083870160005b8281101561239157603f1988860301845261237f8583516122bd565b94509285019290850190600101612363565b5092979650505050505050565b6000602082840312156123b057600080fd5b5035919050565b6020815260006123ca60208301846122bd565b9392505050565b85815260a0602082015260006123ea60a083018761223a565b82810360408401526123fc818761223a565b60608401959095525050608001529392505050565b6020815260006123ca602083018461223a565b634e487b7160e01b600052604160045260246000fd5b604051601f8201601f1916810167ffffffffffffffff8111828210171561246357612463612424565b604052919050565b600082601f83011261247c57600080fd5b813567ffffffffffffffff81111561249657612496612424565b6124a9601f8201601f191660200161243a565b8181528460208386010111156124be57600080fd5b816020850160208301376000918101602001919091529392505050565b6000806000606084860312156124f057600080fd5b833567ffffffffffffffff8082111561250857600080fd5b6125148783880161246b565b9450602086013591508082111561252a57600080fd5b6125368783880161246b565b9350604086013591508082111561254c57600080fd5b506125598682870161246b565b9150509250925092565b80356001600160a01b038116811461257a57600080fd5b919050565b60006020828403121561259157600080fd5b6123ca82612563565b6020815281511515602082015260208201511515604082015260408201516060820152606082015160808201526000608083015160a0808401526125e160c084018261223a565b949350505050565b600080604083850312156125fc57600080fd5b61260583612563565b9150602083013567ffffffffffffffff81111561262157600080fd5b61262d8582860161246b565b9150509250929050565b600067ffffffffffffffff82111561265157612651612424565b5060051b60200190565b600082601f83011261266c57600080fd5b8135602061268161267c83612637565b61243a565b82815260059290921b840181019181810190868411156126a057600080fd5b8286015b848110156126e057803567ffffffffffffffff8111156126c45760008081fd5b6126d28986838b010161246b565b8452509183019183016126a4565b509695505050505050565b600080604083850312156126fe57600080fd5b823567ffffffffffffffff8082111561271657600080fd5b818501915085601f83011261272a57600080fd5b8135602061273a61267c83612637565b82815260059290921b8401810191818101908984111561275957600080fd5b948201945b8386101561277e5761276f86612563565b8252948201949082019061275e565b9650508601359250508082111561279457600080fd5b5061262d8582860161265b565b600181811c908216806127b557607f821691505b60208210810361079857634e487b7160e01b600052602260045260246000fd5b634e487b7160e01b600052601160045260246000fd5b81810381811115612210576122106127d5565b634e487b7160e01b600052603260045260246000fd5b600060018201612826576128266127d5565b5060010190565b602080825260149082015273125b9d985b1a590818d85b991a59185d1948125160621b604082015260600190565b6020808252601d908201527f4e6f7420696e20636f727265637420656c656374696f6e207068617365000000604082015260600190565b6020808252601f908201527f4f6e6c7920636f6d6d697373696f6e65722063616e2063616c6c207468697300604082015260600190565b601f82111561291357600081815260208120601f850160051c810160208610156128f05750805b601f850160051c820191505b8181101561290f578281556001016128fc565b5050505b505050565b815167ffffffffffffffff81111561293257612932612424565b6129468161294084546127a1565b846128c9565b602080601f83116001811461297b57600084156129635750858301515b600019600386901b1c1916600185901b17855561290f565b600085815260208120601f198616915b828110156129aa5788860151825594840194600190910190840161298b565b50858210156129c85787850151600019600388901b60f8161c191681555b5050505050600190811b01905550565b6060815260006129eb606083018661223a565b82810360208401526129fd818661223a565b915050826040830152949350505050565b60408101612a1c82856121e0565b8260208301529392505050565b60008251612a3b818460208701612216565b9190910192915050565b604081526000612a58604083018561223a565b9050826020830152939250505056fea26469706673582212203a94a16b8d6f07a9de685b48ee4bbd0840725fce6a28946a02c3e89849df27ca64736f6c63430008140033",
  "linkReferences": {},
  "deployedLinkReferences": {}
}